:020000040800F2
:10000000188C0020A50D0008790B00087B0B000858
:100010007F0B0008830B0008870B0008000000001E
:100020000000000000000000000000008B0B000832
:100030008D0B0008000000008F0B0008910B0008DA
:10004000BF0D0008BF0D0008BF0D0008BF0D000860
:10005000BF0D0008BF0D0008BF0D0008BF0D000850
:10006000BF0D0008BF0D0008BF0D0008BF0D000840
:10007000BF0D0008BF0D0008BF0D0008BF0D000830
:10008000BF0D0008BF0D0008BF0D0008BF0D000820
:10009000BF0D0008BF0D0008BF0D0008BF0D000810
:1000A000BF0D0008BF0D0008BF0D0008BF0D000800
:1000B000BF0D0008BF0D0008BF0D0008BF0D0008F0
:1000C000BF0D0008BF0D0008BF0D0008BF0D0008E0
:1000D000BF0D000829300008BF0D0008BF0D000843
:1000E000BF0D0008BF0D0008BF0D0008BF0D0008C0
:1000F000BF0D0008BF0D0008BF0D0008BF0D0008B0
:10010000BF0D0008BF0D0008BF0D0008BF0D00089F
:10011000BF0D0008BF0D0008BF0D0008BF0D00088F
:10012000BF0D0008BF0D0008BF0D0008BF0D00087F
:10013000BF0D0008BF0D0008BF0D0008BF0D00086F
:10014000BF0D0008BF0D0008BF0D0008BF0D00085F
:10015000BF0D0008BF0D0008BF0D0008BF0D00084F
:10016000BF0D0008BF0D0008BF0D0008BF0D00083F
:10017000BF0D0008BF0D0008BF0D0008BF0D00082F
:10018000BF0D0008BF0D000800F002F800F069F88C
:100190000AA090E8000C82448344AAF10107DA45E2
:1001A00001D100F05EF8AFF2090EBAE80F0013F0CB
:1001B000010F18BFFB1A43F001031847D86900006C
:1001C000F86900000A444FF0000C10F8013B13F0EE
:1001D000070408BF10F8014B1D1108BF10F8015BA0
:1001E000641E05D010F8016B641E01F8016BF9D193
:1001F00013F0080F1EBF10F8014BAD1C0C1B09D1EA
:100200006D1E58BF01F801CBFAD505E014F8016B5B
:1002100001F8016B6D1EF9D59142D6D370470000ED
:100220000023002400250026103A28BF78C1FBD8FF
:10023000520728BF30C148BF0B607047662905F0E0
:10024000C087002070471FB505F0B6FF04F02CF8FA
:1002500004000020002105F093FAE0601FBD10B5F6
:1002600010BD04F025F91146FFF7EDFF00F005FC85
:1002700004F043F903B4FFF7F2FF03BC02F074FE8D
:100280002DE9F0412DED108B82B006460D46174644
:100290004FF40068384605F015FD41EC1A0B9FED50
:1002A000FE0B53EC102B05F041FB41EC190B9FEDBD
:1002B000FC0B53EC102B05F055FD41EC180B40F6F0
:1002C000E440874200DD0746012E44D100243FE090
:1002D000284605F0F7FC41EC1E0B204605F0F2FC29
:1002E00041EC1F0B53EC1E2B05F020FB9FEDEE0B9A
:1002F00053EC102BCDE900019DED000B51EC100BE0
:1003000005F030FD41EC1D0BB0EE4D0AF0EE6D0A2C
:1003100004F0B2FDB0EE40CAF0EE60CA53EC182B08
:1003200051EC1C0B05F01EFD41EC1A0B404605F08C
:10033000C9FC41EC1B0B53EC1A2B05F043FA41ECC2
:10034000190B05F07BFCDA4921F81400601C84B21B
:10035000AC42BDDB03E1022E40D100243BE0284645
:1003600005F0B0FC41EC1F0B204605F0ABFC53EC54
:100370001F2BCDE900019DED000B51EC100B05F09A
:10038000D5FA41EC1E0B9FEDCB0B53EC102B05F077
:1003900029FE41EC1D0B9FEDC90B53EC102B05F012
:1003A000E1FC41EC1C0B53EC182B05F0DBFC41ECA1
:1003B0001A0B404605F086FC41EC1B0B53EC1A2B44
:1003C00005F000FA41EC190B05F038FCB84921F8AA
:1003D0001400601C84B2AC42C1DBC0E09EBB0024B0
:1003E00011E0404605F06EFC41EC1A0B53EC182B63
:1003F00005F0E8F941EC190B05F020FCAC4921F8B7
:100400001400601C84B205EBD571B4EB610FE8DB1E
:10041000284605EBD071C1F34F0411E0404605F0CA
:1004200051FC41EC1A0B53EC182B05F0DBFD41ECB1
:10043000190B05F003FC9E4921F81400601C84B2DE
:10044000AC42EBDB8BE0FFE7032E7CD100243BE0EA
:10045000284605F037FC41EC1F0B204605F032FC26
:1004600053EC1F2BCDE900019DED000B51EC100B5F
:1004700005F05CFA41EC1E0B9FED920B53EC102B38
:1004800005F0B0FD41EC1D0B9FED900B53EC102BD4
:1004900005F068FC41EC1C0B53EC182B05F062FCDA
:1004A00041EC1A0B404605F00DFC41EC1B0B53ECE4
:1004B0001A2B05F087F941EC190B05F0BFFB7C49BD
:1004C00021F81400601C84B205EBD571B4EB610F08
:1004D000BEDB284605EBD071C1F34F043DE0284652
:1004E00005F0F0FB41EC1F0B281B05F0D4FB53EC8F
:1004F0001F2BCDE900019DED000B51EC100B05F019
:1005000015FA41EC1E0B9FED6F0B53EC102B05F011
:1005100069FD41EC1D0B9FED6D0B53EC102B05F0AD
:1005200021FC41EC1C0B53EC182B05F01BFC41EC9F
:100530001A0B404605F0C6FB41EC1B0B53EC1A2B83
:1005400005F040F900E00AE041EC190B05F076FBFC
:10055000574921F81400601C84B2AC42BFDB02B0E2
:10056000BDEC108BBDE8F08110B55A4801885A489F
:1005700002885A480078FFF783FE0021102000F01F
:10058000C9FC0021102000F04DFD0021544800F06E
:100590007DFE0021534801F01FFD5048007880B9CE
:1005A000514800685149B1FBF0F0441E002120463B
:1005B00002F0ACFE601C41084FF0804001F071FE7B
:1005C00010E0444A9188508802F04EFE02F06CFE22
:1005D000404802883649464802F06CFD01214148F6
:1005E00001F0FAFC10BD2DE9F05F2DED108BADF59B
:1005F000BC4D83468A469FED3F0BB0EE408AF0EE3D
:10060000608ABAF1F50F46D90F210DF5A040A0F888
:10061000FA1D0021A0F8FC1D4FF008084FF0030957
:100620000024D6E00025D0E00DF5A041B1F8FC1D76
:10063000491C481905F02FFB41EC1A0B0DF5A0429F
:10064000B2F8FA1D491C081905F025FB41EC1C0BFA
:10065000504605F037FB41EC1D0B53EC1C2B05F00D
:1006600081FB41EC1B0B53EC1A2B05F07BFB41EC9F
:10067000190B53EC192B51EC180B05F057F904EB3F
:1006800044020EAB03EBC20202EBC50203C204EB51
:1006900044000EA932E0E5E00000000000C8A940D7
:1006A0000000000000FC9F4044174154FB2119400A
:1006B000EC040020000000000000E03F000000000B
:1006C00000000040000000000000D03F00000000DB
:1006D0000000104000000020120000201400002044
:1006E00088640240000001400800002000BD0105B0
:1006F0001474004000000000F406A44101EBC000A7
:1007000000EBC50090ED001BB0EE410AF0EE610A6F
:100710001FED181B53EC112B51EC100B05F052F888
:1007200041EC1B0BB0EE4B0AF0EE6B0A04F018FB29
:10073000B0EE40AAF0EE60AA04EB44000EA901EB73
:10074000C00000EBC50090ED001BB0EE410AF0EEDA
:10075000610A53EC102B51EC1A0B05F037FC41ECFD
:10076000190BB0EE490AF0EE690A04F0EFFA04EB57
:1007700044000EA901EBC00000EBC50080ED000BAA
:1007800004B9FDB106EB46000EA901EBC00000EB79
:10079000C70090ED002BB0EE420AF0EE620A04EBC7
:1007A000440001EBC00101EBC50090ED002BB0EE61
:1007B000421AF0EE621A53EC102B51EC110B05F0BB
:1007C00095FA01D226462F466D1C4D45FFF62CAFFB
:1007D000641C4445FFF626AF0DF5A041B1F8FC1DA1
:1007E000491CC81905F057FA41EC1C0B0DF5A04245
:1007F000B2F8FA1D491C881905F04DFA41EC1E0BA0
:10080000504605F05FFA41EC1F0B53EC1E2B05F030
:10081000A9FA41EC1D0B53EC1C2B05F0A3FA41EC9B
:100820001B0B53EC1B2B51EC180B05F07FF841EC24
:100830001A0B9FEDCA0B53EC102B04F0C3FF41ECD5
:10084000190B05F0FBF90DF5A042A2F8F80DB2F86E
:10085000FA0D3044A2F8FA0DB2F8FC0D3844A2F8B3
:10086000FC0DF8E0BF4801880DF5A040A0F8F81D88
:100870000021A0F8FC1D4FF47A784FF00309002402
:10088000A1E000259BE00DF5A041B1F8FC1D491C3D
:10089000481905F000FA41EC1A0B0DF5A042B2F828
:1008A000F81D081B05F0F7F941EC1C0B504605F04C
:1008B00009FA41EC1D0B53EC1C2B05F053FA41ECEB
:1008C0001B0B53EC1A2B05F04DFA41EC190B53ECB2
:1008D000192B51EC180B05F029F804EB44020EAB70
:1008E00003EBC20202EBC50203C204EB44000EA9F3
:1008F00001EBC00000EBC50090ED001BB0EE410A1B
:10090000F0EE610A1FED951B53EC112B51EC100B0F
:1009100004F058FF41EC1B0BB0EE4B0AF0EE6B0AF3
:1009200004F01EFAB0EE40AAF0EE60AA04EB440018
:100930000EA901EBC00000EBC50090ED001BB0EE6E
:10094000410AF0EE610A53EC102B51EC1A0B05F042
:100950003DFB41EC190BB0EE490AF0EE690A04F0D8
:10096000F5F904EB44000EA901EBC00000EBC50053
:1009700080ED000B04B9FDB106EB46000EA901EBBA
:10098000C00000EBC70090ED002BB0EE420AF0EE85
:10099000620A04EB440001EBC00101EBC50090EDDD
:1009A000002BB0EE421AF0EE621A53EC102B51EC11
:1009B000110B05F09BF901D226462F466D1C4D45C3
:1009C000FFF661AF641D4445FFF65BAF0DF5A04136
:1009D000B1F8FC1D491CC81905F05DF941EC1C0B70
:1009E0000DF5A042B2F8F81D881B05F054F941EC52
:1009F0001E0B504605F066F941EC1F0B53EC1E2B05
:100A000005F0B0F941EC1D0B53EC1C2B05F0AAF9D5
:100A100041EC1B0B53EC1B2B51EC180B04F086FF25
:100A200041EC1A0B9FED4D0B53EC102B04F0CAFE5A
:100A300041EC190B05F002F9401E0DF5A042A2F899
:100A4000FA0DB2F8F80D801BA2F8F80DB2F8FC0D03
:100A50003844A2F8FC0D0DF5A040D0F8F80DCBF805
:100A600000000DF5A040B0F8FC0DABF804000DF54A
:100A7000BC4DBDEC108BBDE8F09F1CB501203A4980
:100A80000870A82002F0EEF94FF4A06000F0AAF977
:100A90004FF4E13002F076FA02F044FB02F086FCFB
:100AA00002F0E3FD02F073FE304801686846FFF78C
:100AB0009AFD2F4800990160BDF804108180FFF76E
:100AC00053FD4AE0002002F04BFB0446002C44D0CA
:100AD000042C0ED124480078401C23490870087863
:100AE000C11700EB91718910A0EB81011E4A1170B2
:100AF00028E0012C12D11D4800681E490968401ADF
:100B00001A490860084601686846FFF76CFD1848F6
:100B100000990160BDF80410818013E0022C11D10E
:100B200012480068134909680844104908600846DB
:100B300001686846FFF757FD0D4800990160BDF850
:100B400004108180FFF710FD02F021FE0223074808
:100B500003210268002002F05BFFB3E735E5AF3503
:100B60000000E03F100000201400002008000020DA
:100B7000000000200C000020704700BFFEE700BF0F
:100B8000FEE700BFFEE700BFFEE770477047704713
:100B9000704700000CB50020019000907648006876
:100BA00040F480307449086000BF7348006800F466
:100BB000003000900198401C0190009818B90198ED
:100BC000B0F5A04FF1D16C48006800F4003010B1CE
:100BD0000120009001E0002000900098012846D1FB
:100BE00065484030006840F08050634940310860FB
:100BF0006248006840F44040604908605E48083040
:100C000000685D49083108600846006840F400400B
:100C100008600846006840F4A05008605848091F62
:100C20000860081F006840F08070091F086000BF5E
:100C30005148006800F000700028F9D040F20570BB
:100C4000504908604C480830006820F003004A49C9
:100C5000083108600846006840F00200086000BFE4
:100C600045480830006800F00C000828F8D10CBD99
:100C700010B54548006840F47000434908603E489C
:100C8000006840F001003C49086000203A49083102
:100C90000860394800683D490840374908603C48C9
:100CA000091D0860081F006820F48020091F0860E3
:100CB000002031490C310860FFF76CFF4FF00060F5
:100CC00031498039086010BD70B500200022022330
:100CD00000240221284D08352D6805F00C0020B1B4
:100CE000042806D0082834D107E02A4D2A4E356062
:100CF00033E02A4D284E35602FE01F4D2D1D2D6805
:100D0000C5F380541C4D2D1D2D6805F03F0154B1D5
:100D1000224DB5FBF1F5184E361D3668C6F3881620
:100D200005FB06F209E01B4DB5FBF1F5124E361D31
:100D30003668C6F3881605FB06F20F4D2D1D2D688B
:100D4000C5F301456D1C6B00B2FBF3F5124E356027
:100D500003E0104D104E356000BF00BF064D083552
:100D60002D68C5F303150E4E705D0B4D2D68C54003
:100D7000094E356070BD0000003802400070004030
:100D800008544007003C024088ED00E0FFFFF6FEFB
:100D9000103000240024F4001800002000127A0013
:100DA0001C0000200948804709480047FEE7FEE78D
:100DB000FEE7FEE7FEE7FEE7FEE7FEE7FEE7FEE70B
:100DC00004480549054A064B70470000710C0008AD
:100DD0008901000818860020188C0020188800203F
:100DE0001888002032490143324A1160704770B5BB
:100DF000002100230F22C4781CB32E4C246804F475
:100E0000E064C4F5E064C4F30721C1F10404E3B273
:100E10000A4144789C40E1B28478144021430C0795
:100E2000210E254C05786155047804F01F05012436
:100E3000AC4005786D11AD0005F1E025C5F8004125
:100E400009E0047804F01F050124AC401B4D06782E
:100E5000761145F8264070BD194A0A400243154BE9
:100E60001B1F1A60704739B1124A121D12680243E3
:100E7000104B1B1D1A6006E00E4A121D12688243B9
:100E80000C4B1B1D1A607047042808D14FF0E0215D
:100E9000096941F004014FF0E022116107E04FF0D1
:100EA000E021096921F004014FF0E022116170474F
:100EB0000000FA050CED00E000E400E080E100E055
:100EC00080FFFF1F10B50121480700F099FE0021A7
:100ED0004FF0005000F094FE10BD30B5002200230A
:100EE0007B4C226840F6FE748440A243D1E9004561
:100EF0002C438D682C43CD6844EA050303FA00F4C3
:100F00002243734C226030BD00210160416081604A
:100F1000C160704739B16E4A1268012383401A4399
:100F20006B4B1A6006E06A4A1268012383409A43B9
:100F3000674B1A60704710B551B1654A121D1268AF
:100F400004090123A3401A43614B1B1D1A6009E0E9
:100F50005F4A121D126804090123A3409A435C4BA7
:100F60001B1D1A6010BD40B15949091D096841F0A7
:100F70000301574A121D116007E05549091D096810
:100F800021F00301524A121D1160704710B53AB1A9
:100F90004F4B1B6801FA00F423434D4C236006E0DD
:100FA0004B4B1B6801FA00F4A343494C236010BD6E
:100FB00008B500220092464A009200F10802009B08
:100FC0001A440092009A116008BD08B500220092F0
:100FD0003F4A009200F11402009B1A440092009ACA
:100FE000116008BD30B500240023082802D142EA70
:100FF000012401E042EA0144354B00F120052B4475
:101000001C6030BD08B501460020009030480090BB
:101010002C2000EB9100009A10440090009800688A
:1010200080B208BD41B12A4A12684FF48053834010
:101030001A43274B1A6007E0254A12684FF4805381
:1010400083409A43224B1A60704710B53AB1204B47
:101050001B6801FA00F423431D4C236006E01C4B7F
:101060001B6801FA00F4A343194C236010BD10B5AE
:1010700002460020164B34331B6801FA02F4234069
:101080000BB1012000E0002010BD01FA00F2104B6E
:1010900034331A60704730B50246002000230C4CF0
:1010A000246801FA02F504EA0503094C3434246883
:1010B00001FA02F52C4014B10BB1012000E0002030
:1010C00030BD01FA00F2024B34331A607047000061
:1010D00000740040016821F00101016000210160FD
:1010E00041608160C160016121214161DB49884229
:1010F00004D13D21D94A103A91608CE0D74918318A
:10110000884205D14FF47461D44A103A916082E06C
:10111000D2493031884205D14FF47411CF4A103A88
:10112000916078E0CD494831884205D14FF0746133
:10113000CA4A103A91606EE0C8496031884204D1D1
:10114000C749C64A103AD16065E0C449783188423F
:1011500004D1C449C14A103AD1605CE0BF49903122
:10116000884204D1C049BD4A103AD16053E0BB491E
:10117000A831884205D14FF03D51B84A103AD160AC
:1011800049E0BA49884204D13D21B84A083A116081
:1011900041E0B6491831884205D14FF47461B34A31
:1011A000083A116037E0B1493031884205D14FF437
:1011B0007411AE4A083A11602DE0AC4948318842BA
:1011C00005D14FF07461A94A083A116023E0A7499C
:1011D0006031884204D1A249A44A121F11601AE06A
:1011E000A2497831884204D19E49A04A121F116059
:1011F00011E09E499031884204D19B499B4A121FBD
:10120000116008E09949A831884204D14FF03D515E
:10121000964A121F1160704710B500220268944B65
:101220001A40CC680B6823434C6923438C692343E1
:10123000CC6923430C6A23434C6A23438C6A2343BF
:101240004C6B23438C6B23431A430260426922F0A8
:101250000702D1E90B3423431A4342610B6943600F
:101260004B6883608B68C36010BD002101604160E2
:101270008160C160016141618161C161016241625E
:101280008162C162016341638163704721B1026879
:1012900042F00102026003E0026822F001020260F3
:1012A000704721B1026842F40042026003E0026824
:1012B00022F400420260704721B1026842F020022D
:1012C000026003E0026822F0200202607047416081
:1012D00070470146486880B2704722B1036843F402
:1012E0000023036003E0036823F40023036001612B
:1012F000704721B1026842F48022026003E0026874
:1013000022F48022026070470AB1016100E0C160EE
:101310007047014600200A6802F400220AB1012049
:1013200000E000207047014600200A6802F0010238
:101330000AB1012000E000207047014600204A6900
:1013400002F03800704730B503460A4600200024FA
:10135000464DAB4202D24149103901E043491039B0
:1013600002F000550DB14C6800E00C68414D2C4076
:1013700004EA02050DB1012000E0002030BD024664
:101380003A4B9A4202D23548103801E037481038BB
:1013900001F000531BB1374B0B40C36002E0354BEB
:1013A0000B408360704710B501F080034BB122B150
:1013B000436943F08003436103E0436923F0800302
:1013C000436180290BD02AB1036801F01E04234336
:1013D000036004E0036801F01E04A343036010BD32
:1013E00070B50246002000240025204EB24202D2F1
:1013F0001A4B103B01E01D4B103B1F4E0E4036B107
:101400001E2606EAD124166806EA040502E056699B
:1014100006F0800501F000560EB15C6800E01C6823
:10142000144E344004EA010616B10DB1012000E06B
:10143000002070BD02460D4B9A4202D20748103878
:1014400001E00A48103801F000531BB1094B0B4072
:10145000C36002E0074B0B4083607047106002409E
:101460003D000020400F002000003D20106402409D
:101470003F801CF07D0F7D0F3C0F3C0F10B50446E4
:101480009848844208D10121084600F086FB0021DB
:10149000012000F082FB76E09348844208D10121CC
:1014A000022000F07AFB0021022000F076FB6AE0C7
:1014B0008E48844208D10121042000F06EFB0021F7
:1014C000042000F06AFB5EE08948844208D10121D3
:1014D000082000F062FB0021082000F05EFB52E0D3
:1014E0008448844208D10121102000F056FB0021DD
:1014F000102000F052FB46E07F48844208D10121D1
:10150000202000F04AFB0021202000F046FB3AE0BA
:101510007A48844208D10121402000F03EFB00219E
:10152000402000F03AFB2EE07548844208D10121AA
:10153000802000F032FB0021802000F02EFB22E012
:101540007048844208D10121801500F026FB00215B
:10155000A01500F022FB16E06B48844208D101215F
:10156000401500F01AFB0021601500F016FB0AE0A0
:101570006648844207D10121001500F00EFB0021CE
:10158000201500F00AFB10BDF0B50A46002100232B
:10159000002400BF3DE0012505FA01F3156805EAC6
:1015A00003049C4234D105684F000326BE40B54376
:1015B000056015794E00B54006683543056015791C
:1015C000012D02D01579022D16D185684F00032612
:1015D000BE40B543856055794E00B54086683543B9
:1015E0008560456801268E40B5434560456896791B
:1015F0008E40B6B235434560C5684F000326BE40F5
:10160000B543C560D5794E00B540C6683543C56061
:10161000491C1029BFD3F0BD4FF6FF7101600021B6
:10162000017141718171C171704708B54FF4803209
:101630000092009A0A430092009AC261C161009A26
:10164000C261C2690092C269009208BD02460020D0
:1016500013690B400BB1012000E0002070470146E8
:10166000086980B270470246002053690B400BB1F5
:10167000012000E0002070470146486980B27047B1
:1016800001837047418370470AB1018300E04183C1
:1016900070474161704742694A4042617047F0B506
:1016A000002300244D07ED0E02FA05F3CE1000F1E1
:1016B000200555F826504E07F70E0F26BE40B543BD
:1016C000CF1000F1200646F82750CE1000F120057B
:1016D00055F8265045EA0304CE1000F1200545F8E0
:1016E0002640F0BD00000240000402400008024015
:1016F000000C02400010024000140240001802409A
:10170000001C024000200240002402400028024049
:10171000F948006840F00100F74908600020F649E8
:1017200008310860F4480068F4490840F24908604C
:10173000F348091D0860F348EF4984310860F04818
:101740001038091D0860EC48006820F48020EA4940
:1017500008600020E8490C310860E7498C310860D6
:1017600070470021E44A921C1170114608707047BE
:1017700010B501460022002300204A11012A02D19F
:10178000DD4C236808E0022A03D1DB4C7034236867
:1017900002E0D94C7434236801F01F020124944004
:1017A0001C400CB1012000E0002010BD38B5002025
:1017B00000900024002500BF3120FFF7D9FF054627
:1017C0000098401C00900098B0F5A04F01D0002D6B
:1017D000F2D03120FFF7CCFF08B1012400E0002453
:1017E000204638BD01460020C34A106820F0F800AA
:1017F00040EAC10010607047C3490860704700218B
:10180000BD4A703211701170012802D004280AD12B
:1018100004E00121B84A7032117005E00521B64A92
:101820007032117000E000BF00BF7047B749086018
:10183000704770B5049C41EA82150126C6EB530639
:1018400045EA0645054345EA0465AB4E361D35605D
:1018500070BDAD4908667047820142EA0172A64B2D
:1018600084331A607047A8498866704710B58301B1
:1018700043EA016343EA02739F4C8834236010BD3E
:10188000A14908677047A049C86470470246002014
:10189000994B0833186820F0EC6042EA01031843C2
:1018A000954B08331860704702460020924B08336E
:1018B000186820F0784042EA010318438E4B083341
:1018C00018607047014600208B4A0832106820F0EB
:1018D000030008431060704787480830006800F034
:1018E0000C00704701460020834A0832106820F03F
:1018F000F000084310607047014600207E4A08321D
:10190000106820F4E0500843106070470146002042
:10191000794A0832106820F4604040EAC100106043
:101920007047F0B500210022002402250026022382
:10193000714F08373F6807F00C0121B1042905D029
:10194000082937D105E0724F076036E0714F076014
:1019500033E0694F3F1D3F68C7F38056664F3F1D18
:101960003F6807F03F036EB16A4FB7FBF3F7DFF84C
:1019700088C10CF1040CDCF800C0CCF3881C07FB18
:101980000CF40CE0624FB7FBF3F7DFF86CC10CF11D
:10199000040CDCF800C0CCF3881C07FB0CF4564F99
:1019A0003F1D3F68C7F301477F1C7D00B4FBF5F77F
:1019B000076002E0564F076000BF00BF4E4F083778
:1019C0003F6807F0F0010909534F7A5C0768D74078
:1019D0004760494F08373F6807F4E051890A4E4F86
:1019E0007A5C4768D7408760434F08373F6807F401
:1019F0006041490B484F7A5C4768D740C760F0BDEB
:101A0000002100F44072B2F5407F0AD13A4A083210
:101A1000116821F4F811414A02401143364A083254
:101A20001160354A70321268C0F30B031A43324B0F
:101A300070331A607047354944390860704733493C
:101A400040390860704736490860704701460020F9
:101A5000294A8C32106820F01F004A1E1043264A83
:101A60008C321060704701460020234A8C32106887
:101A700020F4F8504A1E40EA02201F4A8C321060BF
:101A80007047014600201C4A8C32106820F4401038
:101A900008431060704701460020174A8C321068D6
:101AA00020F4400008431060704701460020124AAD
:101AB0008C32106820F44030084310607047194998
:101AC0000860704739B10C4A3032126802430A4B41
:101AD00030331A6006E0084A303212688243064BFF
:101AE00030331A607047F9B1034A34321268024346
:101AF000014B34331A601CE000380240FFFFF6EA65
:101B0000103000240030002000004742800E474281
:101B10000024F40000127A002C000020FFFCFF0FCC
:101B20005C014742E01147428F4A126882438E4B64
:101B30001A60704739B18C4A121D126802438A4BF1
:101B40001B1D1A6006E0884A121D12688243864BEC
:101B50001B1D1A60704739B1834A0C321268024368
:101B6000814B0C331A6006E07F4A0C3212688243C4
:101B70007D4B0C331A60704739B17B4A10321268C2
:101B80000243794B10331A6006E0774A103212682C
:101B90008243754B10331A60704739B1724A243A48
:101BA00012680243704B243B1A6006E06E4A243AE6
:101BB000126882436C4B243B1A60704739B16A4A01
:101BC000203A12680243684B203B1A6006E0664ADE
:101BD000203A12688243644B203B1A60704739B147
:101BE000614A1C3A126802435F4B1C3B1A6006E0D4
:101BF0005D4A1C3A126882435B4B1C3B1A6070477B
:101C000039B1594A143A12680243574B143B1A60CF
:101C100006E0554A143A12688243534B143B1A604B
:101C2000704739B1504A103A126802434E4B103B8C
:101C30001A6006E04C4A103A126882434A4B103B45
:101C40001A60704739B1484A1C3212680243464B49
:101C50001C331A6006E0444A1C3212688243424B2D
:101C60001C331A60704739B13F4A20321268024370
:101C70003D4B20331A6006E03B4A20321268824313
:101C8000394B20331A60704739B1374A2432126811
:101C90000243354B24331A6006E0334A243212687B
:101CA0008243314B24331A60704739B12E4A2C32AB
:101CB000126802432C4B2C331A6006E02A4A2C325D
:101CC00012688243284B2C331A60704739B1264A78
:101CD000303212680243244B30331A6006E0224A45
:101CE000303212688243204B30331A60704701282B
:101CF00008D11D493C31096841F008011A4A3C32BB
:101D0000116007E018493C31096821F00801164AC2
:101D10003C321160704739B1134A273A12780243B6
:101D2000114B273B1A7006E00F4A273A127882437C
:101D30000D4B273B1A7070470B484030006840F04D
:101D40008070094940310860704701460020064A0A
:101D5000283A12680A400AB1012000E000207047CA
:101D600001492639087070473438024010B50446DE
:101D7000FE48844208D101210846FFF752FF0021A6
:101D80000120FFF74EFF9DE0B4F1804F08D1012103
:101D90000846FFF735FF00210120FFF731FF91E0F2
:101DA000F348844208D101210220FFF729FF0021D6
:101DB0000220FFF725FF85E0EE48844208D101218B
:101DC0000420FFF71DFF00210420FFF719FF79E031
:101DD000E948844208D101210820FFF711FF0021C2
:101DE0000820FFF70DFF6DE0E448844208D101218F
:101DF0001020FFF705FF00211020FFF701FF61E031
:101E0000DF48844208D101212020FFF7F9FE00219C
:101E10002020FFF7F5FE55E0DA48844208D1012181
:101E20000220FFF7FEFE00210220FFF7FAFE49E044
:101E3000D548844209D101210804FFF7F2FE0021B0
:101E40004FF48030FFF7EDFE3CE0D048844209D1EA
:101E500001214804FFF7E5FE00214FF40030FFF7B1
:101E6000E0FE2FE0CA48844209D101218804FFF72F
:101E7000D8FE00214FF48020FFF7D3FE22E0C548B2
:101E8000844208D101214020FFF7BAFE0021402002
:101E9000FFF7B6FE16E0C048844208D10121802039
:101EA000FFF7AEFE00218020FFF7AAFE0AE0BB4844
:101EB000844207D101218015FFF7A2FE0021A01561
:101EC000FFF79EFE10BD00220288A84B98420ED05C
:101ED000AC4B98420BD0B0F1804F08D0A44B984245
:101EE00005D0A44B984202D0A34B984204D14FF6A0
:101EF0008F731A404B881A43A04B984207D0A04BCF
:101F0000984204D04FF6FF431A400B891A430280CF
:101F10004B68C3620B880385944B984202D0994B5F
:101F2000984201D18B7A03860123838270474FF058
:101F3000FF31416000210180018141808172704741
:101F40000185828270470A46002101884FF68F730F
:101F5000194011430180704741627047C162704768
:101F60000146486A70470146088D704721B10288D2
:101F700042F00202028004E002884FF6FD731A402C
:101F80000280704721B1028842F00402028004E01E
:101F900002884FF6FB731A400280704721B1028815
:101FA00042F08002028004E002884FF67F731A40FC
:101FB0000280704702884FF6F7731A400280028849
:101FC0000A430280704702884FF6FF431A4002809E
:101FD00002880A430280704721B1028842F0010260
:101FE000028004E002884FF6FE731A4002807047B8
:101FF00070B5002400220023058C4FF6FE76354094
:102000000584028C8388048B4FF68F752C40B51E97
:102010002C400D882C43751E2A408D892A434D88FB
:102020002A43524DA84202D0564DA84213D14FF632
:10203000F7752A40CD892A434FF6FB752A408D88D3
:102040002A434FF6FF652B404FF6FF552B400D8A74
:102050002B434D8A2B43838004838D684563028420
:1020600070BD70B5002400220023058C4FF6EF767A
:1020700035400584028C8388048B48F6FF752C401C
:102080004FF6FF452C400D884FF6FF7606EA0525F2
:102090002C434FF6DF752A408D8906EA05152A4341
:1020A0004D8806EA05152A43304DA84202D0354D29
:1020B000A8421DD14FF67F752A40CD894FF6FF7695
:1020C00006EA05152A434FF6BF752A408D8806EAB1
:1020D00005152A434FF6FF352B404FF2FF752B4075
:1020E0000D8A06EA85052B434D8A06EA85052B43B2
:1020F000838004838D688563028470BD70B500247D
:1021000000220023058C4FF6FF6635400584028CC3
:102110008388848B4FF68F752C404FF6FC752C40CE
:102120000D882C434FF6FF552A408D894FF6FF76D8
:1021300006EA05252A434D8806EA05252A430B4D64
:10214000A84202D00F4DA84238D14FF2FF752A4065
:10215000CD894FF6FF7606EA05252A434FF6FF356F
:102160002A408D8806EA05252A4319E0000001402F
:102170000004004000080040000C00400010004037
:1021800000140040000401400040014000440140B0
:102190000048014000180040001C004000200040A2
:1021A0004EF6FF752B404DF6FF752B400D8A06EA63
:1021B00005152B434D8A06EA05152B43838084833E
:1021C0008D68C563028470BD70B5002200230024B1
:1021D000058C4EF6FF7635400584038C8488828B0F
:1021E00048F6FF752A404FF6FF452A400D884FF606
:1021F000FF7606EA05252A434DF6FF752B408D89AB
:1022000006EA05352B434D8806EA05352B43FE4D7E
:10221000A84202D0FD4DA84208D14BF6FF752C40D4
:102220000D8A4FF6FF7606EA85152C43848082835B
:102230008D680564038470BD002101804180818028
:1022400081608181C18101824182704770B50346FE
:10225000002000241846183001258D40ACB21D8C9A
:10226000A5431D8409B108290AD100EB6100056866
:102270004FF68F76354005600568154305600FE021
:102280000D1FC5F34E052844056848F6FF76354016
:10229000056005684FF6FF7606EA022635430560BD
:1022A00070BD4163704781637047C16370470164CB
:1022B00070470A460021018B4FF68F731940114376
:1022C000018370470A460021018B48F6FF731940CD
:1022D0004FF6FF7303EA02231943018370470A464E
:1022E0000021818B4FF68F73194011438183704712
:1022F0000A460021818B48F6FF7319404FF6FF73A1
:1023000003EA02231943818370470A460021018BA7
:102310004FF6F77319401143018370470A460021B5
:10232000018B4FF2FF7319404FF6FF7303EA02234C
:102330001943018370470A460021818B4FF6F773DA
:1023400019401143818370470A460021818B4FF267
:10235000FF7319404FF6FF7303EA02231943818389
:1023600070470A460021018B4FF6FB731940114359
:10237000018370470A460021018B4FF6FF33194055
:102380004FF6FF7303EA02231943018370470A469D
:102390000021818B4FF6FB731940114381837047F5
:1023A0000A460021818B4FF6FF3319404FF6FF7329
:1023B00003EA02231943818370470A460021018BF7
:1023C0004FF67F7319401143018370470A4600217D
:1023D000018BC1F30E014FF6FF7303EA0223194389
:1023E000018370470A460021818B4FF67F731940A5
:1023F0001143818370470A460021818BC1F30E018E
:102400004FF6FF7303EA02231943818370470A469C
:102410000021018C4FF6FD73194011430184704770
:102420000A460021018C4FF6F773194011430184CD
:1024300070470A460021018C4FF6DF7319404FF6B2
:10244000FF7303EA02131943018470470A4600210F
:10245000018C4FF67F7319404FF6FF7303EA0213A6
:102460001943018470470A460021018C4FF6FF533F
:1024700019404FF6FF7303EA0223194301847047A2
:102480000A460021018C4FF2FF7319404FF6FF738B
:1024900003EA02231943018470470A460021018C94
:1024A0004DF6FF7319404FF6FF7303EA02331943E9
:1024B0000184704730B5002301248C40A3B2048C02
:1024C0009C430484048C02FA01F5ADB22C430484CD
:1024D00030BD30B5002304248C40A3B2048C9C434F
:1024E0000484048C02FA01F5ADB22C43048430BD9F
:1024F000828B4FF2FF331A408283828B4FF6FF7339
:1025000003EA01231A4382837047F0B50C4615464F
:10251000002100220026078C4EF6FF7C07EA0C07FC
:102520000784818B028C4FF6FF7707EA043640F66A
:10253000FF4739404FF6FF7707EA052739434FF643
:10254000FF7707EA0337394345F6FF773A4046F409
:1025500080573A4381830284F0BD828B4FF6F37338
:102560001A408283828B0A4382837047F0B50C46FF
:102570001546002100220026078C4FF6FF6C07EA63
:102580000C070784818B028C4FF6FF7707EA04263D
:102590004FF60C7739404FF6FF7707EA03172F43C2
:1025A00039434FF2FF573A4046F480773A438183EC
:1025B0000284F0BD028B4FF2FF331A400283028B7C
:1025C0004FF6FF7303EA01231A4302837047F0B505
:1025D0000C461546002100220026078C4FF6EF7CA2
:1025E00007EA0C070784018B028C4FF6FF7707EA96
:1025F000041640F6FF4739404FF6FF7707EA0337E6
:1026000039434FF6FF7703E000000140000401402A
:1026100007EA052739434FF65F773A4046F010073F
:102620003A4301830284F0BD028B4FF6F3731A40E4
:102630000283028B0A4302837047F0B50C461546AD
:1026400000210022068C4FF6FE773E400684018B67
:10265000028C4FF60C7631407E1C06EA03162E43A0
:1026600031434FF6F576324044F0010632430183A0
:102670000284F0BD70B505460C46208850B9238908
:10268000A28861882846FFF7D8FFE1882846FFF72F
:10269000CBFF25E0208804280AD12389A2886188FD
:1026A0002846FFF794FFE1882846FFF783FF17E0ED
:1026B000208808280AD12389A28861882846FFF744
:1026C00055FFE1882846FFF748FF09E02389A288E3
:1026D00061882846FFF719FFE1882846FFF708FFC1
:1026E00070BD002101804180012181800021C180D5
:1026F000018170472DE9F04105460C46002601276F
:10270000608808B9022600E00026A088012801D1CF
:10271000022700E001272088A0B92389A2886188C8
:102720002846FFF78AFFE1882846FFF77DFF2389C7
:102730003A4631462846FFF74AFFE1882846FFF728
:1027400039FF13E02389A28861882846FFF73FFFFD
:10275000E1882846FFF72EFF23893A46314628466E
:10276000FFF76BFFE1882846FFF75EFFBDE8F081C9
:102770000146486B70470146886B70470146C86B3D
:1027800070470146086C70470A884B881A438B884B
:102790001A43CB881A430B891A434B891A438B89F6
:1027A0001A43A0F8442070470021018041808180B5
:1027B000C180018141818181704731B1B0F84420ED
:1027C00042F40042A0F8442005E0B0F84420C2F3EF
:1027D0000E02A0F84420704721B1828842F0040222
:1027E000828004E082884FF6FB731A408280704733
:1027F00021B1828842F00102828004E082884FF693
:10280000FE731A40828070471AB183890B4383811B
:1028100002E083898B43838170478182704702463F
:102820000020138A0B400BB1012000E0002070470C
:10283000CA430282704730B50246002000230024BC
:10284000158A05EA0103958905EA010413B10CB163
:10285000012000E0002030BDCA430282704741EAF7
:102860000203A0F8483070471AB183890B43838173
:1028700002E083898B438381704721B1828842F0D3
:102880000802828004E082884FF6F7731A40828043
:10289000704701894FF6F8721140018170470A466E
:1028A000002101894FF68F73194011430181704750
:1028B00030B504460D4629462046FFF7F0FF208933
:1028C00040F00700208130BD2DE9F04104460D465F
:1028D00016461F46602D06D13B4601223146204652
:1028E000FFF775FE05E03B46012231462046FFF723
:1028F000A4FE29462046FFF7D2FF208940F00700BA
:102900002081BDE8F08130B50C4600210189C9B2B3
:102910004FF6FF7505EA0325154325432943018139
:1029200030BD2DE9F04105460E4617469846002475
:1029300043463A4631462846FFF7E5FF2C894FF6D5
:10294000F870044044F007044FF68F70044044F0E0
:1029500070042C81BDE8F081F0B504460D461646A2
:102960001F463B46324629462046FFF7CCFF2089CA
:1029700040F480402081F0BD82884FF68F731A406A
:10298000828082880A438280704702894FF6F873FA
:102990001A40028102890A430281704702894FF678
:1029A0007F731A40028102890A4302817047F0B5A1
:1029B0000C4615461E460021002200230189028B89
:1029C000038C4FF6F877394021434FF6FC473A40E5
:1029D00040F201173A434FF6DD773B404FF6FF7761
:1029E00007EA06172F433B43018102830384F0BDAE
:1029F00021B1828842F08002828004E082884FF612
:102A00007F731A4082807047A0F850107047000012
:102A100010B50446FA48844208D101211020FFF77E
:102A200000F900211020FFF7FCF857E0F548844238
:102A300009D101214804FFF7E3F800214FF40030E9
:102A4000FFF7DEF84AE0F048844209D1012188040A
:102A5000FFF7D6F800214FF48020FFF7D1F83DE0D2
:102A6000EA48844209D10121C804FFF7C9F80021CE
:102A70004FF40020FFF7C4F830E0E548844209D164
:102A800001210805FFF7BCF800214FF48010FFF783
:102A9000B7F823E0DF48844208D101212020FFF766
:102AA000C0F800212020FFF7BCF817E0DA48844284
:102AB00009D101218807FFF7A3F800214FF08040DA
:102AC000FFF79EF80AE0D548844207D1012140056E
:102AD000FFF796F800216005FFF792F810BD2DE989
:102AE000FF4705460E460024A14600BFA046B08918
:102AF00000B100BF2C8A24F44054F08804432C8297
:102B0000AC8941F20C608443B088318908437189F3
:102B100008430443AC81AC8A24F44074B089044374
:102B2000AC826846FEF7FDFEB548854202D0B94842
:102B3000854202D1DDF80C9001E0DDF80890A8890B
:102B400000F4004040B109EBC90000EB0910316806
:102B50004900B0FBF1F707E009EBC90000EB0910F1
:102B600031688900B0FBF1F76420B7FBF0F0040195
:102B70002009642101FB1078A88900F4004040B1CD
:102B8000322000EBC800B0FBF1F000F00700044376
:102B900008E0322000EB08106421B0FBF1F000F0F7
:102BA0000F0004432C81BDE8FF874FF416510160EC
:102BB00000218180C18001810C214181002181811E
:102BC000704710B502460020108A20F470600B8810
:102BD0004C8823438C882343CC882343184310829A
:102BE00010BD0021018041808180C180704721B1EA
:102BF000828942F40052828104E082894DF6FF739B
:102C00001A4082817047028B02F47F420283028B5A
:102C10000A430283704721B1828942F400428281D3
:102C200003E08289C2F30E028281704721B1828A59
:102C300042F40062828204E0828A4FF2FF731A40FB
:102C400082827047C1F308028280704701468888FB
:102C5000C0F308007047028A4FF6F0731A400282F0
:102C6000028A0A430282704721B1828942F002023D
:102C7000828104E082894FF6FD731A408281704799
:102C800082894FF2FF731A40828182890A438281CE
:102C90007047028A4FF6DF731A400282028A0A43A3
:102CA0000282704721B1028A42F48042028204E02B
:102CB000028A4BF6FF731A4002827047818941F005
:102CC00001018181704721B1828A42F0080282822B
:102CD00004E0828A4FF6F7731A4082827047028BB3
:102CE000D2B20283028B42EA01220283704721B1F1
:102CF000828A42F02002828204E0828A4FF6DF73E9
:102D00001A408282704721B1828A42F01002828288
:102D100004E0828A4FF6EF731A4082827047828AFB
:102D20004FF6FB731A408282828A0A43828270477E
:102D300021B1828A42F00202828204E0828A4FF646
:102D4000FD731A40828270471AB1838A0B438382D3
:102D500002E0838A8B4383827047F0B503460024E8
:102D600000260025002040F66A17B94200D100BFB6
:102D70001846C1F3421401F01F06012707FA06F5B1
:102D8000012C01D10C3004E0022C01D1103000E004
:102D900014301AB107682F43076002E00768AF4399
:102DA0000760F0BD02460020B1F5007F00D100BFF2
:102DB00013880B400BB1012000E00020704701F4A4
:102DC0000072B2F5007F00D100BFCA430280704795
:102DD00070B50246002400230025002040F66A1644
:102DE000B14200D100BFC1F3421501F01F0301261B
:102DF00006FA03F3012D13D19689334017E0000042
:102E0000001001400044004000480040004C0040D9
:102E1000005000400014014000780040007C004059
:102E2000022D02D1168A334001E0968A33400C12FB
:102E3000012606FA04F41688344013B10CB10120BF
:102E400000E0002070BD10B50022002340F66A1497
:102E5000A14200D100BF0A1201249440A3B2DC4376
:102E6000048010BD10B504466FF00400FEF70CF8A6
:102E7000E11704EB5171C1F3C701394A11701046D3
:102E8000007800EB4001C1EBC0104FF6FF7101EA82
:102E9000C0003449088010BD0146314A12784A43C7
:102EA0004FF0E0235A6100229A611A46126942F0FB
:102EB00001021A6100BF4FF0E022106900F0010228
:102EC0001AB100F48032002AF5D04FF0E0221269E6
:102ED00022F001024FF0E0231A6100229A6170474C
:102EE0000146204A12884A434FF0E0235A610022EB
:102EF0009A611A46126942F001021A6100BF4FF04E
:102F0000E022106900F001021AB100F48032002AB8
:102F1000F5D04FF0E022126922F001024FF0E023D9
:102F20001A6100229A61704770B504464FF4077029
:102F300094FBF0F0C6B24FF4077094FBF0F100FB85
:102F4000114085B205E04FF40770FFF7C9FF701E0E
:102F5000C6B2002EF7D115B12846FFF7C1FF70BDEC
:102F60003C0000203E000020014600BF704700BF2B
:102F70004C4A128802F04002002AF9D0C2B2494BF2
:102F80009A80704710B588B0044601210846FEF7C4
:102F900099FD01211020FEF7EFFD0722092142488B
:102FA000FEF77DFB07220A213F48FEF778FB4FF42E
:102FB000C060069002208DF81C008DF81D000020D6
:102FC0008DF81E0001208DF81F0006A93648FEF777
:102FD000DBFA02940020ADF80C00ADF80E00ADF85D
:102FE0001000ADF814000C20ADF8120002A92D4815
:102FF000FFF775FD01212B48FFF7F9FD012240F293
:1030000025512848FFF7A9FE25208DF8040003204C
:103010008DF805008DF8060001208DF8070001A845
:10302000FDF7E5FE08B010BD10B540F225511D4872
:10303000FFF7CEFE10B31B48FFF708FEC4B21B48D3
:10304000008800F40040C8B91848008800F48040A7
:1030500060B10A2C03D000201449088020E01348F6
:10306000008840F400401149088019E00D2C06D179
:103070000E48008840F480400C49088010E00B485E
:103080000088C0F30D000A490C5408480088401C11
:103090000649088008460088C72801DD002008800E
:1030A00010BD00000010014000000240440000205C
:1030B000EC84002070B590B006460C461546012100
:1030C0008805FEF7FFFC1648FEF704F801A8FEF796
:1030D000CCF84FF0406001900296039405954FF4B0
:1030E0000060089080000990402004900020069025
:1030F0004FF48060079080100A9040020B900020EF
:103100000C9001200D9000200E900F9001A9044812
:10311000FEF782F801210248FEF7B8F810B070BD42
:10312000886402401CB501211120FEF7CBFC1C2055
:10313000009000208DF8040003208DF80500012088
:103140008DF8070069463548FEF71EFA0120009009
:1031500002208DF8070069463148FEF715FA1CBDBC
:1031600010B5044614B101202E4908702D4800788E
:10317000002837D010212948FEF768FA78B10821D5
:103180002648FEF763FA50B104212448FEF75EFAA0
:1031900028B101212248FEF759FA012822D10A203C
:1031A000FFF7C2FE00201F49087010211B48FEF7E0
:1031B0004DFA08B9012010BD08211848FEF746FA5B
:1031C00008B90220F7E704211448FEF73FFA08B9CE
:1031D0000320F0E701211248FEF738FA01281BD13D
:1031E0000420E8E710210D48FEF730FA012813D13A
:1031F00008210A48FEF72AFA01280DD104210748C0
:10320000FEF724FA012807D101210548FEF71EFA2E
:1032100010B90120034908700020CCE700100240DB
:10322000000002404600002070B504460D46012112
:103230000846FEF790FC002229464FF08040FEF73A
:103240007FFE21464FF08040FEF788FE2021480691
:10325000FFF792FB01218807FEF7BEFE0122110253
:103260008805FFF701FB70BD70B504460D460121CE
:103270000846FEF781FC002229460A48FEF760FE58
:1032800021460848FEF76AFE20210648FFF774FB36
:1032900001210448FEF7A0FE012211020148FFF7B8
:1032A000E3FA70BD0000014000B587B00121084677
:1032B000FEF708FC01214807FEF74DFCFDF702FE72
:1032C0002020059003208DF818008DF819000020AB
:1032D0008DF81B0005A90C48FEF756F920210A4875
:1032E000FEF7CEF901A8FDF70FFE00200190029035
:1032F0000220049001A91020FDF7EFFD012110200C
:10330000FDF708FE07B000BD0000024030B58BB0ED
:1033100004460D4601210846FEF71DFC0121084622
:10332000FEF7D0FB2020099002208DF82800032012
:103330008DF8290000208DF82A0001208DF82B003F
:1033400009A91948FEF720F9012205211648FEF7C0
:10335000A6F9ADF818500020ADF81A000794ADF8A2
:10336000200006A94FF08040FEF7ADFD6020ADF8CB
:1033700004000120ADF806000020ADF81000039015
:1033800001A94FF08040FEF733FE0821C806FEF782
:10339000BCFF01218807FEF701FE01218807FEF727
:1033A0001BFE0BB030BD0000000002401CB5012127
:1033B0000220FEF787FBC020009001208DF804005A
:1033C00000208DF8060003208DF8050000208DF800
:1033D000070069468F48FEF7D7F8C0218D48FEF7F1
:1033E0004FF91CBD10B58B48006820F47040894926
:1033F00008600846006840F4A04008600120864943
:1034000008608649C1F898020420FFF745FD0020B6
:10341000814908600420FFF73FFD00207F49C1F883
:10342000980210BD10B57B48006820F470407949BF
:1034300008600846006840F4A04008600020764913
:10344000091F08607549C1F89C020420FFF724FD9C
:1034500001207149091F08607049C1F89C020420CD
:10346000FFF71AFD10BD10B500246A48006820F46B
:103470007040684908600846006840F48050086061
:10348000012065490860FFF707FD01206349C1F885
:103490009802FFF701FD07E0601CC4B2FA2C03DDBF
:1034A000FFF7C0FF012010BD5B488038006800288E
:1034B000F2D15949091F086000BFF4E710B5002098
:1034C0005549091F08605348006820F4704051496D
:1034D00008600846006840F4A040086000204F499A
:1034E000C1F89C020220FFF7D7FC01204A49091FBE
:1034F00008600220FFF7D0FC00204849C1F898027C
:1035000010BD10B500204449091F086041480068FB
:1035100020F470403F4908600846006840F4A0402D
:10352000086001203D49C1F89C020220FFF7B4FC6D
:1035300001203949091F08600220FFF7ADFC002077
:103540003649C1F8980210BD70B50446314800688C
:1035500020F470402F4908600846006840F4A040FD
:10356000086000202C49091F086000251DE0E009C3
:1035700018B101202849086002E0002026490860AF
:103580006006040E0220FFF787FC01202249091F74
:1035900008600220FFF780FC00202049C1F8980253
:1035A0000220FFF779FC681CC5B2082DDFDB70BD77
:1035B00070B5054600241748006820F4704015498E
:1035C00008600846006840F480500860002617E054
:1035D00000201149091F08600220FFF75DFC01204F
:1035E0000E49C1F898026006040E0B488038006846
:1035F00008B1601CC4B20120FFF74EFC701CC6B2BB
:10360000082EE5DB15B9FFF77CFF01E0FFF756FF59
:10361000204670BD000402409C824042008040422F
:1036200070B505460C46FFF7DDFE7820FFF78CFFEE
:10363000FFF719FF2846FFF787FFFFF714FF204623
:10364000FFF782FFFFF70FFFFFF7ECFE70BD10B52D
:10365000044621460020FFF7E3FF10BD10B50446E5
:1036600021464020FFF7DCFF10BD10B56420FFF7B6
:103670005BFCAE20FFF7EBFF2020FFF7E8FF1020F8
:10368000FFF7E5FFB020FFF7E2FFC820FFF7DFFFFD
:103690000020FFF7DCFF1020FFF7D9FF4020FFF7E5
:1036A000D6FF8120FFF7D3FFFE480078FFF7CFFF5A
:1036B000A120FFF7CCFFFC48007818B1A620FFF747
:1036C000C6FF02E0A720FFF7C2FFA820FFF7BFFF59
:1036D0003F20FFF7BCFFA420FFF7B9FFD320FFF77F
:1036E000B6FF0020FFF7B3FFD520FFF7B0FFF020B3
:1036F000FFF7ADFFD920FFF7AAFF2220FFF7A7FFB2
:10370000DA20FFF7A4FF1220FFF7A1FFDB20FFF76D
:103710009EFF2020FFF79BFF8D20FFF798FF1420CE
:10372000FFF795FFAF20FFF792FF10BD70B504467D
:103730000D4605F1B001C8B2FFF789FF102141EA3B
:103740001410FFF784FF04F00F0141F00100FFF7B0
:103750007EFF70BD70B50646002415E004F1B0018F
:10376000C8B2FFF774FF0020FFF771FF1020FFF7CA
:103770006EFF002504E03046FFF770FF681CC5B2FD
:10378000802DF8DB601CC4B2082CE7DB70BD10B5DF
:103790000020FFF7DFFF10BD10B58D20FFF757FFAA
:1037A0001420FFF754FFAF20FFF751FF10BD10B5F5
:1037B0008D20FFF74CFF1020FFF749FFAE20FFF7E9
:1037C00046FF10BD2DE9F0470646894617469A4642
:1037D0004FF0000800240025BAF1010F03D0BAF120
:1037E000020F5ED125E020E0785D203800F0FF0870
:1037F0007E2E04DD002609F1010000F0FF09494694
:103800003046FFF793FF002409E008EB4801A74A80
:1038100002EB4101085DFFF721FF601CC4B2062CDA
:10382000F3DBB01DC6B2681CC5B2785D0028DBD1E1
:1038300037E032E0785D203800F0FF08782E04DDB4
:10384000002609F1010000F0FF0949463046FFF764
:103850006DFF002407E004EB0811954A505CFFF768
:10386000FDFE601CC4B2082CF5DB09F10100C1B2F9
:103870003046FFF75BFF002408E004EB0811083135
:103880008B4A505CFFF7EAFE601CC4B2082CF4DBE4
:1038900006F10800C6B2681CC5B2785D0028C9D11F
:1038A00000BF00BFBDE8F0872DE9F04180460E461D
:1038B000174600247D0131464046FFF737FF00BF21
:1038C00006E07C49485DFFF7C9FE6D1C601CC4B270
:1038D000102CF6DB701CC1B24046FFF727FF002416
:1038E00006E07449485DFFF7B9FE6D1C601CC4B268
:1038F000102CF6DBBDE8F0812DE9F05F06460F469F
:1039000090461C46DDF828A04FF0000BE11704EBB1
:103910005171C910A4EBC10131B92046E11704EB84
:103920005171C1F3C70506E02046E11704EB517160
:10393000C910491CCDB23D4614E029463046FFF778
:10394000F5FEB1460AE059460BF1010B1AF80100E9
:10395000FFF784FE09F1010000F0FF09C145F2DB29
:10396000681CC5B2A542E8DBBDE8F09F2DE9F04137
:1039700006460F46154698460024B8F1010F03D0BD
:10398000B8F1020F41D117E0A5F12000C5B23946C8
:103990003046FFF7CBFE002409E005EB4501434A22
:1039A00002EB4101085DFFF759FE601CC4B2062C12
:1039B000F3DBB01DC6B228E0A5F12000C5B2394640
:1039C0003046FFF7B3FE002407E004EB0511384A48
:1039D000505CFFF743FE601CC4B2082CF5DB781C7A
:1039E000C1B23046FFF7A2FE002408E004EB051147
:1039F00008312F4A505CFFF731FE601CC4B2082C1E
:103A0000F4DB06F10800C6B200BF00BFBDE8F081DC
:103A10002DE9FE4F8046894615469A4645B95346DC
:103A2000302249464046FFF7A1FF0120BDE8FE8F46
:103A3000002D04DA2D208DF800006D4202E02020D8
:103A40008DF8000001240CE00A2095FBF0F100FB4A
:103A500011503030C0B20DF804000A2095FBF0F58B
:103A6000641C002DF0DC00200DF8040001260AE0A3
:103A70001DF80670A01B1DF800000DF80600A01B25
:103A80000DF80070761C04EBD471B6EB610FEFDD1E
:103A90009DF800002D2813D153466A4649464046FA
:103AA0000AE00000E8040020E7040020C6610008E6
:103AB000EE63000847000020FFF784FE2046B5E7CC
:103AC00053460DF1010249464046FFF77BFE601E5A
:103AD000ACE72DE9F0470646894617469A464FF06F
:103AE000000800240025BAF1010F03D0BAF1020F3B
:103AF00064D127E022E0785D203800F0FF087E2EB8
:103B000004DD002609F1010000F0FF0949463046B6
:103B1000FFF70CFE00240BE008EB4801774A02EBAC
:103B20004101095DC943C8B2FFF798FD601CC4B2EA
:103B3000062CF1DBB01DC6B2681CC5B2785D00284A
:103B4000D9D13BE036E0785D203800F0FF08782ED0
:103B500004DD002609F1010000F0FF094946304666
:103B6000FFF7E4FD002409E004EB0811644A515C0E
:103B7000C943C8B2FFF772FD601CC4B2082CF3DB66
:103B800009F10100C1B23046FFF7D0FD00240AE080
:103B900004EB081108315A4A515CC943C8B2FFF717
:103BA0005DFD601CC4B2082CF2DB06F10800C6B251
:103BB000681CC5B2785D0028C5D100BF00BFBDE854
:103BC000F0872DE9F04106460F4615469846002439
:103BD000B8F1010F03D0B8F1020F47D119E0A5F1F8
:103BE0002000C5B239463046FFF7A0FD00240BE0A7
:103BF00005EB4501414A02EB4101095DC943C8B2E9
:103C0000FFF72CFD601CC4B2062CF1DBB01DC6B260
:103C10002CE0A5F12000C5B239463046FFF786FDFD
:103C2000002409E004EB0511354A515CC943C8B2D0
:103C3000FFF714FD601CC4B2082CF3DB781CC1B282
:103C40003046FFF773FD00240AE004EB051108314C
:103C50002B4A515CC943C8B2FFF700FD601CC4B2D7
:103C6000082CF2DB06F10800C6B200BF00BFBDE8B9
:103C7000F08110B50446AE20FFF7E9FC8120FFF784
:103C8000E6FC2046FFF7E3FCAF20FFF7E0FC10BDA9
:103C900010B51C48007808B9012000E0002019493F
:103CA00008700846007818B1A620FFF7D0FC02E0A3
:103CB000A720FFF7CCFC10BD70B52DED028B84B0B2
:103CC00005460E46B0EE408AF0EE608A144653EC8C
:103CD000182B0DA1684600F01BF800208DF80F008E
:103CE00023466A4631462846FFF76CFD684600F0D9
:103CF0007FF804B0BDEC028B70BD0000C661000807
:103D0000EE630008E7040020256C660070470000A1
:103D10000FB41CB5074B06AA7B4469460090059872
:103D200000F0A9FA0020694600F0B8FA1CBC5DF862
:103D300014FB0000810500002DE9F0410F46054607
:103D4000002028622846E968884770B3252805D0F6
:103D5000D5E901219047286A401CF2E7E968284626
:103D6000002688476C2804460AD0682C08D04C2CC2
:103D700035D06A2C31D0742C31D07A2C2FD016E06B
:103D8000E968064628468847B042044608D16C2EAA
:103D900023D04FF480662846E9688847044606E049
:103DA0006C2E03D04FF4807601E01EE04026E4B193
:103DB000A4F14100192802D8203446F400663A469E
:103DC000214628462E60FCF739FA60B1012808D058
:103DD000FF1D27F007070837B4E78026DBE700263A
:103DE000D9E73F1DAEE72046B2E7286ABDE8F0817B
:103DF00010B5431C02E010F8011B71B18107FAD124
:103E00004FF0013202C88C1A8C4314EAC211F9D067
:103E1000C01A0A0603D0C01E10BDC01A10BD0A0485
:103E200001D0801E10BD0902FCD0401E10BD70479D
:103E300070477047704710B500F03AFA006810BD3F
:103E400010B5044600F034FA046010BD70472DE947
:103E5000FF4F0C461E464FF0FF378BB0D2E90001F2
:103E6000DDF860800A908A46C1F30A5505B93D46DF
:103E7000002108464FF00000BAF1000F00F44000A6
:103E800005DA00EB80004FF4400101EA50004FEAF0
:103E90009059B9F1010F00DDB9460A9850EA4A007D
:103EA0000ED044F61050A5F2FF3545432F14B8F15B
:103EB000000F1ED07542291E1EDDC9F100021CE054
:103EC000B8F1010F4FF0000001D0302103E0F243C0
:103ED00005E02154401CB042FBDB304600220021AB
:103EE00021540B99C1F80880C1E900200FB0BDE84A
:103EF000F08FBD1B6D1CDEE74A4600DA694206A85A
:103F000000F060FA06AB93E8070003AB83E8070014
:103F100050460A9900F03AFB8DE80700A0F50050E2
:103F20001F3800900398002D0ADD42F21F014A4617
:103F30000844002303A90390684600F0A3FD09E0AC
:103F4000A0F500504A461F38002303A90390684695
:103F500000F0ADFD8DE807000004000C03D04FF029
:103F6000FF30410800E01046B8F1000F03D00022F6
:103F7000009215461EE0751E05D400F09DF9303202
:103F800062556D1EF9D5B3460122084302D00022C6
:103F90007F1C04E02078302801D100227F1E002AF7
:103FA000099784D01DE0112D07DA00F085F9303231
:103FB00062556D1C50EA0102F5D1084302D0009809
:103FC000C8B10EE00021681E05E0235C625C63540A
:103FD0002254401E491C8142F7DBAB46A81B401E01
:103FE0000990002004F80B000B98099AC0F808808B
:103FF000C0E9002B7AE711264FF0000857E72DE9BA
:10400000F04F88460446D21D22F0070191B0D1E955
:104010000001CDE90A0100F081FE02460B98C00FB5
:1040200001D02D2007E02068810701D52B2002E078
:10403000202101EAC000032A099001D0072A05DBEC
:1040400003464146204600F07DF90BE120788006CA
:1040500001D5E06900E00620B8F1650F814606D081
:10406000B8F1660F18D0B8F1670F70D131E00020B9
:10407000B9F1110F009001DB112301E009F10103F7
:104080000AAA01A90CA8FFF7E2FEDDE90C700026E0
:1040900009F10105834647E001204B4600904FF0AF
:1040A00000470AAA01A90CA8FFF7D1FEDDE90DB06F
:1040B0000C995D46002610B909F101000D18B9EB05
:1040C000050003D4C0F1FF3609F10105A5EB090095
:1040D0002BE0B9F1010F01DA4FF001090020B9F12D
:1040E000110F0090484601DD112300E003460AAAA3
:1040F00001A90CA8FFF7ABFEDDE90C704D460026C8
:104100008346207800070AD4AB4500DA5D4601A853
:10411000012D04DD411911F8011C302907D04F454C
:1041200002DA17F1040F04DA012082460FE06D1E57
:10413000EEE7002F02DCED1B3E4403E0781CA842B2
:1041400000DD7D1CB81B00F1010A4FF0004720780C
:10415000000703D4AA4501DB4FF0FF3A0021B7F175
:10416000004F0DF143088DF8431024D002202B237B
:10417000002F01DA7F422D230A21021EA0F1010047
:1041800000DC5FB197FBF1FC97FBF1F201FB1C7CBB
:1041900017460CF1300C08F801CDEEE7A8F101004C
:1041A00003702188090501D5452100E06521A0F1B2
:1041B000010800F8011C09980FA9A1EB0807FF1DD1
:1041C00000B10120411901EBEA70A1693844081AD5
:1041D000401EA0612078C00602D42046AFF30080C4
:1041E000099828B1D4E901219047206A401C206237
:1041F0002078C00622D52046AFF300801EE0002EB6
:1042000004DBB34502DD01A8805D00E03020D4E985
:1042100001219047206A401C2062761CAAF101000F
:104220005FEA000A0AD100F03FF8C0680168405C0C
:10423000D4E901219047206A401C2062281EA5F184
:104240000105DCDC07E0D4E9012118F8010B9047F7
:10425000206A401C2062381EA7F10107F3DC2046CB
:10426000AFF30080032011B041E6000001694A1C51
:1042700002610878704700B58FB0CDE901310021A7
:10428000059105497944CDE9031011466846FFF7C9
:1042900053FD0FB000BD0000E5FFFFFF0A6802F804
:1042A000010B0A607047000000487047D485002069
:1042B00000487047B485002030B5B0F10A024FEADB
:1042C000900E71F100034EEA817EB0EB0E0061EBBF
:1042D00091014FEA101E4EEA017E10EB0E0041EBF9
:1042E00011114FEA102E4EEA016E10EB0E0041EB59
:1042F00011214FEA104E4EEA014E10EB0E0041EB39
:104300001141401841F100014FEAD00040EA4170EC
:104310004FEAD10110EB80054FEA810444EA907422
:1043200044EB01046D1944EB0404521BA3414FF00C
:10433000000348BF0A3200D530BD401C41F10001E6
:1043400030BD00002DE9F0411F46044603260168F8
:10435000072A01F4006004DB08B116A505E016A5E4
:1043600003E008B115A500E015A521F010002060BC
:10437000A069C01EA0610FB1401EA0612046AFF32E
:1043800000804FB1D4E9012138469047206A401C93
:104390002062C01C206206E0206AFAE7D4E901210D
:1043A00015F8010B9047761EF8D22046AFF3008037
:1043B000BDE8F0814E414E006E616E00494E4600F0
:1043C000696E66002DE9F047814616468AB0354889
:1043D00078440DC88DE80D0032487844801C03AC49
:1043E0000DC884E80D0041F69B300844372190FB4E
:1043F000F1F290FBF1F5A5F1800501FB12041B3CE5
:1044000002D56442012000E00020DFF898A0804639
:104410000027FA44AAF1BE0A0EE0E0070AD03246AD
:10442000684607EB470101230AEB810100F03FFBDF
:104430008DE8070064107F1C002CEED1194F7F44DB
:10444000AE3F19E0E80715D007EB04100DF1180A8C
:1044500090E80E008AE80E00C068F04201D1981979
:1044600008903246012306A903A800F020FB03AB05
:1044700083E807006D10641C002DE3D14FF00103A9
:1044800032466946B8F1000F03A802D000F0FAFAEC
:1044900001E000F00CFBC9E90001C9F808200AB0EE
:1044A000BDE8F087A827000000487047B4850020C9
:1044B0007546FFF7F9FFAE4605006946534620F002
:1044C0000700854618B020B5FCF77AFCBDE820400F
:1044D0004FF000064FF000074FF000084FF0000BC0
:1044E00021F00701AC46ACE8C009ACE8C009ACE873
:1044F000C009ACE8C0098D46704710B50446AFF35B
:1045000000802046BDE81040FBF7B4BE4FF0013CF0
:1045100050F8042B51F8043B9A4221D1A2EB0C0332
:10452000934313EACC1317D150F8042B51F8043BF2
:104530009A4215D1A2EB0C03934313EACC130BD18F
:1045400050F8042B51F8043B9A4209D1A2EB0C031A
:10455000934313EACC13DBD04FF00000704700BF49
:10456000D01A01BAB1FA81F101F0180122FA01F072
:10457000CB40C1F12001DBB2C0B2C01A2CFA01F36A
:10458000D11A914311EAC311E6D170475FEA400C9A
:1045900008BF91F0000F4FEA8C234FEAC12243EA93
:1045A00051514FEA1C5018BF00F5F0404FEA30005F
:1045B00018BF41F000415FEA6C5C00F02980BCF15B
:1045C000FF3F08BF40F080407047130C06BF120445
:1045D0004FF0100C4FF0000C130E04BF12020CF140
:1045E000080C130F04BF12010CF1040C930F04BF4D
:1045F00092000CF1020CD30F04BF52000CF1010C1D
:1046000011464FF00002A0F11F00A0EB0C00704714
:1046100011F0004F08BF704731F000413FF4D5AFB3
:104620000B0C06BF09044FF0100C4FF0000C0B0EE2
:1046300004BF09020CF1080C0B0F04BF09010CF1B7
:10464000040C8B0F04BF89000CF1020CCB0F04BFCC
:1046500049000CF1010CCCF12003A0EB0C0022FA74
:1046600003F302FA0CF241EA030100F10100704782
:1046700020F07F4C80EA030023F07F47ACEB070378
:1046800003F57C5300F0004003F1FF032DE980495E
:104690004FEA154B09B44FEA144325EA0B4E24EABE
:1046A00003480FF2042606EB132749083E785FEA19
:1046B000320203FB0667C7F5000707FB06F64FEA61
:1046C00054374FEAD64606F1020607FB066CCCF1DA
:1046D000005C4FEA1C472CEA074C07FB06F40CFB76
:1046E00006F504EB15464FEA961634BF00204FF04E
:1046F00000404FEAD13706FB07FC4FEA1C4C0CFB8D
:104700000BF7D21B03FB0CF761EB07010CFB0EF759
:10471000B0EB074072EB17420CFB08F734BFA2EB7B
:104720000742B2EB074261EB17414FEA0C444FEAF4
:10473000910706FB07FC4FEA1C4C0CFB0BF7B0EB98
:10474000C74072EB573203FB0CF734BFA2EBC742F2
:10475000B2EBC74261EB57310CFB0EF7B0EBC70071
:1047600072EB57720CFB08F734BFA2EBC702B2EB37
:10477000C70261EB5771039F4FEA816141EA9211D1
:1047800004EBCC044FEAD1374FEA826206FB07FC08
:1047900042EA90124FEA80604FEA1C4C0CFB0BF788
:1047A000D21B03FB0CF761EB07010CFB0EF7B0EB20
:1047B000074072EB17420CFB08F734BFA2EB07422D
:1047C000B2EB074261EB17414FEA8C554FEA910774
:1047D00004EB9C2406FB07FC4FEA1C4C0CFB0BF77C
:1047E000B0EBC74072EB573203FB0CF734BFA2EBC0
:1047F000C742B2EBC74261EB57310CFB0EF7B0EB8F
:10480000C70072EB57720CFB08F734BFA2EBC7026C
:10481000B2EBC70261EB577115EB4C254FEA816192
:1048200041EA92114FEA82624FEAD13742EA90128E
:1048300006FB07FC44F100044FEA80604FEA1C4C81
:104840000CFB0BF7D21B03FB0CF761EB07010CFB16
:104850000EF7B0EB074072EB17420CFB08F734BFC2
:10486000A2EB0742B2EB074261EB174115EB1C15B7
:104870004FEA813141EA92414FEA823242EA904264
:104880004FEA80304FEA0C7644F1000448EA0343D3
:104890004EEA0B484FF0000EB2EB080C71EB030729
:1048A00024BF624639464EEB0E0E4FF0000B001847
:1048B000524149414BEB0B0BB2EB080C71EB030778
:1048C0007BF1000B24BF624639464EEB0E0E4FF0D3
:1048D000000B0018524149414BEB0B0BB2EB080C9B
:1048E00071EB03077BF1000B24BF624639464EEBA8
:1048F0000E0E51EA020718BF46F0010616EB0E76BF
:1049000055F1000254F1000103D5BDE88901BDE86D
:104910000088BDE88901BDE80048B619524141EB65
:104920000101A3F10103704780807F7E7D7C7B7A4B
:104930007978777676757473727171706F6E6E6D4B
:104940006C6C6B6A6A6968686766666564646363F1
:1049500062616160605F5F5E5E5D5D5C5C5B5B5A77
:104960005A595958585757565655555554545353E4
:1049700052525251515050504F4F4F4E4E4D4D4D3F
:104980004C4C4C4B4B4B4A4A4A494949484848478A
:1049900047474746464645454544444444434343C8
:1049A0004342424242414141002B9C4630D4770071
:1049B0002BD01CB54FEA370703B44FF010004FF06F
:1049C0001001BAF1000F06D0BCF1000FDCBF40F0BF
:1049D000080040F008014FF000000FBCBDE8104097
:1049E0000BF1010BBBF1010F08BF5FEA170722BFF4
:1049F00012F1010211F101014FF0004143F10003F6
:104A000000F0004043EA00007047F9D35708D0E7B0
:104A100046EA064613F1400F4FEA16461FDD13F132
:104A2000200FDFBF16430A46002120335B42BED071
:104A3000C3F1200746EA064602FA07F74FEA164690
:104A400046EA0706C3F1200722FA03F201FA07F744
:104A500021FA03F14FF0000342EA0702A7E746EA12
:104A6000020646EA06464FEA164646EA0106BCBF7B
:104A700046EA0646360C4FF000034FF000024FF0B6
:104A8000000194E72DE9804C9A46934670B491E872
:104A9000380007C831EA400C48BF34EA430C03D55C
:104AA000FFF7E6FDFFF780FFF0BCBDE8008C2DE9C5
:104AB000804C9A46934670B491E8380007C810F0CD
:104AC000804F08BF13F0804F03D100F005F8FFF7C7
:104AD0006BFFF0BCBDE8008C20F07F4780EA03004C
:104AE00023F07F4C07EB0C03A3F57C5300F0004050
:104AF000A3F1FE0392F0000F00F0B38095F0000FD9
:104B000000F077802DE901494FEA11404FEA144641
:104B100021EA004800FB06FC24EA064708FB06F6EB
:104B200007FB08F800FB07F718EB06484CEB164CA0
:104B30004FEA124B18EB07484FEA15464CEB17406B
:104B400022EA0B4E0BFB06FC25EA06470EFB06F697
:104B500007FB0EFE0BFB07F71EEB064E4CEB164C4D
:104B60004FF000061EEB074E4CEB174B18EB0B08F3
:104B700040F1000018EB0E0B58EB000840F100006C
:104B80008F1A4FF000013CBFC943661B14BFB5EB41
:104B9000040C00213CBFC943F61B4FEA17444EEA00
:104BA0008E0E27EA04454FEA1C4704FB07622CEAF5
:104BB000074C05FB07F70CFB05F604FB0CFC16EB9A
:104BC000074642EB174216EB0C4642EB1C421BEB2E
:104BD000060658EB0202414146EA9E0601D5BDE8B1
:104BE0000189B619524141EB0101A3F10103BDE86E
:104BF00001894FEA14454FEA114724EA054621EAA4
:104C0000074C05FB07F406FB07F70CFB06F105FB59
:104C10000CFC11EB074144EB17444FEA124711EB30
:104C20000C4144EB1C4422EA074C05FB07F206FB4F
:104C300007F70CFB06F605FB0CFC16EB074642EBF0
:104C4000174216EB0C4642EB1C456A1854F1000162
:104C500048BF7047B619524141EB0101A3F101036E
:104C6000704795F0000F37D04FEA11424FEA1447D2
:104C700021EA024624EA074C02FB07F106FB07F78C
:104C80000CFB06F402FB0CFC14EB074441EB174150
:104C90004FEA154714EB0C4441EB1C4125EA074C45
:104CA00002FB07F506FB07F70CFB06F602FB0CFC04
:104CB00016EB074645EB174516EB0C4645EB1C4239
:104CC000121951F1000148BF7047B619524141EB2A
:104CD0000101A3F1010370474FEA14454FEA114760
:104CE00024EA054621EA074C05FB07F106FB07F716
:104CF0000CFB06F24FF0000605FB0CFC12EB074222
:104D000041EB174112EB0C4251EB1C4148BF70477D
:104D1000921841EB0101A3F10103704703B401981C
:104D20004100009850EAC12018BF04204A0D18BF66
:104D300040F0010040F2FF72B2EB515F08BF40F05B
:104D40000200012808BF052002B070472DED020BBC
:104D5000019820F0004001909DED000B02B07047DB
:104D60002DE9F0412DED020B9FED3D0B2DED028B5A
:104D70009FED3D8BDDE90254C4F30A50A0F2FF36EB
:104D8000142E37DA002E18DA53EC102B9DED020B9F
:104D900051EC100B00F016FD53EC182B01F0E0F86D
:104DA00057D2002CA4BF0024254652DA24F000403C
:104DB000284318BF2E4C4CD01AE02E4820FA06F794
:104DC00004EA070028431FD053EC102B9DED020B83
:104DD00051EC100B00F0F6FC53EC182B01F0C0F86E
:104DE00037D2002C03DA4FF48010F0400444BC4367
:104DF00000252EE0332E07DCA6F114004FF0FF3122
:104E000021FA00F73D4206D19DED020BBDEC028B6D
:104E100002B0BDE8F08153EC102B9DED020B51EC7C
:104E2000100B01F0D3F853EC182B01F099F810D2C5
:104E3000002C0DDA142E08BF641C09D0C6F1340012
:104E4000012101FA00F02844A84238BF641C05463D
:104E5000BD43CDE902549DED020BD7E700000000F1
:104E60009C7500883CE4377E0000000000000000D4
:104E70000000F0BFFFFF0F0010B52F499FED2C1B66
:104E80002DED020B84B0059820F000408842DCBF75
:104E900000209DED040B32DD2849884209D1049899
:104EA00040B94FF00100FEF7CBFF00F03DFC06B02B
:104EB00010BD05DB9DED040B00F02AFC06B010BD13
:104EC00068469DED040B00F03BF810F0030011D094
:104ED000012818D09DED021B9DED000B02281AD071
:104EE00000F04AFA51EC100B00F060FC06B041EC07
:104EF000100B10BD9DED021B9DED000B012000F07D
:104F00006FFB06B010BD9DED021B9DED000B00F088
:104F100033FA06B010BD012000F062FB51EC100B1B
:104F200000F044FC06B041EC100B10BD0000000086
:104F30000000000000000000FB21E93F0000F07FBE
:104F40002DE9F14F04462DED020B2DED088B8AB0B3
:104F50009FEDE70B80ED020B139EE74826F000451E
:104F600085420ADC9DED120B002084ED000B0AB097
:104F7000BDEC088B03B0BDE8F08FE0489FEDE0ABDF
:104F80009FEDE1BBA84247DDE14F9FEDE39B9FED25
:104F9000E48B9DED120B53EC1A2B51EC100B002EF1
:104FA0001CDD01F01FF841EC100BBD4208D053ECA2
:104FB0001B2B51EC100B01F015F8C4E900010BE0BC
:104FC00053EC192B51EC100B01F00CF853EC182B8F
:104FD00001F008F8C4E900010120C8E700F0F2FB85
:104FE00041EC100BBD4208D053EC1B2B51EC100BC5
:104FF00000F0E8FBC4E900010BE053EC192B51EC85
:10500000100B00F0DFFB53EC182B00F0DBFBC4E9C6
:1050100000014FF0FF30AAE7C348A84279DB9DEDBD
:10502000120B51EC100B00F09FFB41EC180B9FEDA5
:10503000C00B53EC102B00F095FE9FEDBF1B53EC03
:10504000112B00F0BFFB00F0C9FD074600F023FE66
:1050500041EC190B53EC1A2B00F084FE53EC182B87
:1050600000F0B4FF41EC180B53EC1B2B51EC190B67
:1050700000F078FEDFF8C8A241EC100B4FEA15589B
:105080000125FA4453EC102B51EC180B00F0AAFF49
:10509000032DC4E900013DD0C1F30A5005EB4511D1
:1050A000A8EB00001139814234DA0AEB051BB0EE9F
:1050B00048AA9BED000BF0EE68AA53EC102B51ECC4
:1050C000190B00F04FFE41EC1B0B51EC1A0B53EC8B
:1050D0001B2B00F087FF41EC180B51EC1A0B53EC23
:1050E000182B00F07FFF53EC1B2B00F07BFF9BED98
:1050F000020B41EC1A0B53EC102B51EC190B00F086
:1051000031FE53EC1A2B00F06DFF41EC100B6D1CBF
:10511000B8E70EE0002EA8BF3846BFF628AF94EDE2
:10512000000B51EC100B00F041FBC4E90001784288
:105130001DE7C6F3130040F4801EC6F30A50A0F228
:10514000F530471100F01F05C5F12000DDF848B02B
:1051500008900020069007900520EC467949002D24
:1051600007EB0002794408BF51F8221009D051F82A
:10517000223001EB8201AB404A68089922FA01F122
:105180001943A1FB0E26A1FB0B131A449A4234BF0C
:105190000123002303EB06080CEB8003D3E901A6EF
:1051A0000E448E4234BF0121002192448A4411B141
:1051B000924502D903E0924501D2012100E000218D
:1051C000C3E901A641444CF82010011EA0F10100E2
:1051D000C4DC029800F10050850F0298DDE90367F6
:1051E0008000DDF8148000F056FD41EC1A0B3046CB
:1051F00000F068FD9FED541B53EC112B00F0B2FD45
:1052000041EC1B0B384600F05DFD9FED511B53EC4C
:10521000112B00F0A7FD41EC180B404600F052FDA9
:105220009FED4D1B53EC112B00F09CFD41EC190B35
:1052300051EC180B53EC192B00F0C4FA53EC1B2B58
:1052400000F0C0FA53EC1A2B00F0BCFACDE90801CB
:10525000002008909DED080B53EC1A2B51EC100B1D
:1052600000F0C0FE53EC1B2B00F0BCFE53EC182BDF
:1052700000F0B8FE53EC192B00F0A8FE9FED381B90
:1052800053EC112B00F06EFD9FED370B41EC180B2A
:1052900053EC102B9DED080B51EC100B00F062FD50
:1052A00053EC182B00F08EFA9FED310B41EC180BEC
:1052B00053EC102B9DED080B51EC100B00F052FD40
:1052C00053EC182B00F07EFA41EC100B139810F001
:1052D000004F06D06D4251EC100B00F067FA41EC24
:1052E000100B284684ED000B41E600000000000092
:1052F0000000000000000000FB21E93F7CD90240D3
:1053000000004054FB21F93F3163621A61B4D03D83
:10531000FB21F93F000000000000601A61B4D03D9D
:105320007370032E8A19A33BFB2139410000000052
:1053300083C8C96D305FE43F000000000000E03F1B
:105340008A190000D8180000000000000000103E7C
:10535000000000000000103C000000000000103AB7
:10536000182D4454FB21F93D3326A611460B113C60
:1053700000000054FB21F93D10B52DED040B2DED7F
:10538000088B82B0B0EE419AF0EE619A0B9820F053
:1053900000449FED4BABB4F1795F11DA9DED0A0B40
:1053A00051EC100B00F01AFC002801BFB0EE4A0AC5
:1053B000F0EE6A0A02B0BDEC088B04BF04B010BD69
:1053C0009DED0A0B53EC102B51EC100B00F0CAFCB6
:1053D00041EC180B3C480621B0EE480AF0EE680A92
:1053E000784400F081F853EC182B51EC100B00F0CE
:1053F000B9FC9DED0A0B41EC1B0B53EC192B51EC46
:10540000100B00F0AFFC41EC190B53EC1B2B51ECD3
:10541000180B00F0A7FC53EC192B00F0E3FD9FEDF7
:105420002C0B41EC190B53EC102B51EC180B00F02A
:1054300099FC41EC100B2848844210DA53EC192BEC
:1054400051EC100B00F0CEFD53EC1A2B00F0BEFD1A
:1054500041EC100B02B0BDEC088B04B010BD1F482E
:10546000A042BCBF9FED1E1B8DED001B06DBA4F50B
:1054700000100190002000909DED001B51EC100BDE
:1054800053EC112B00F0AEFD9DED000B41EC180B21
:1054900053EC102B51EC1A0B00F0A4FD41EC1A0B4D
:1054A00053EC192B51EC180B00F09CFD53EC1A2B0C
:1054B00000F08CFD41EC100BCCE700000000000078
:1054C000000000000000F03FFC150000000000009C
:1054D000000000000000E03F3333D33F0000E93F0D
:1054E000000000000000D23F70B504462DED028B95
:1054F0004D1E00EBC500B0EE408AF0EE608A90EDE4
:10550000000B35F0060017D053EC182B51EC100BA4
:1055100000F028FC41EC100B6D1E04EBC50090ED73
:10552000001B51EC100B53EC112B00F04BF941EC2C
:10553000100B35F00600E7D1022D36D0042D1CD01B
:10554000062D1CBFBDEC028B70BD53EC182B51EC2B
:10555000100B00F007FC94ED0A1B53EC112B00F02C
:1055600031F953EC182B00F0FDFB94ED081B53ECC4
:10557000112B00F027F941EC100B53EC182B51ECD8
:10558000100B00F0EFFB94ED061B53EC112B00F019
:1055900019F953EC182B00F0E5FB94ED040B53ECD8
:1055A000102B00F00FF941EC100B53EC182B51ECC1
:1055B000100B00F0D7FB94ED021B53EC112B00F005
:1055C00001F953EC182B00F0CDFB94ED001B53ECCC
:1055D000112B00F0F7F8BDEC028B41EC100B70BD05
:1055E00031B504462DED040B2DED0A8BB0EE41BA1A
:1055F000F0EE61BA0B989DED0A0B20F00040B0F17F
:10560000795F0DDA51EC100BFFF788FB042808BF17
:1056100000F09AF89DED0A0BBDEC0A8B05B030BD89
:1056200053EC102B51EC100B00F09CFB41EC180BD1
:105630009DED0A0B53EC182B51EC100B00F092FB74
:1056400041EC190B2C48B0EE480AF0EE680A05212F
:105650007844FFF749FF9FED2ACBB0EE40AAF0EE69
:1056600060AA9CB353EC1C2B51EC190B00F07AFB95
:1056700041EC1C0B53EC1A2B51EC190B00F072FB94
:105680009FED210B41EC190B53EC102B51EC1B0B34
:1056900000F068FB53EC192B00F0A4FC53EC182B22
:1056A00000F060FB53EC1B2B00F09CFC53EC1C2B1C
:1056B00000F098FC9DED0A1B53EC112B00F086FCCA
:1056C000BDEC0A8B05B041EC100B30BDFFE753EC8D
:1056D0001A2B51EC180B00F045FB53EC1C2B00F07F
:1056E00071F853EC192B00F03DFB9DED0A1B53ECB8
:1056F000112B00F067F8E3E78414000000000000BD
:10570000495555555555C5BF000000000000E03F04
:1057100010B553EC102B51EC100B00F053F841EC8A
:10572000100B10BD000000009FED050B10B553ECF1
:10573000102B51EC100B00F0F9F841EC100B10BDE0
:1057400000000000000000009FED050B10B553ECB9
:10575000102B51EC100B00F005FB41EC100B10BDB1
:10576000000000000000001082B0CDE9000121F02F
:10577000004001909DED000B02B051EC100B704702
:1057800010B500290AD00878002807D005487844C9
:10579000FEF7BCFE002801D0002010BD024878446E
:1057A00010BD0000261400001E14000081F000410E
:1057B000704780F00040704721F00041704720F0B2
:1057C0000040704710B591EA030F48BF83F00043D3
:1057D00000F11084841A71EB030C05D2121943EB0B
:1057E0000C03001B61EB0C01DFF824E14FEA1154BC
:1057F000A4EB135C1EEA430F18BF9EEA445F73D00C
:1058000023EA0E03DCF1200E21EA045143F4801355
:1058100032D322FA0CFE10EB0E0023FA0CFE41EB01
:105820000E01CCF1200E03FA0EFE10EB0E0051F12A
:105830000001B1F5801FCCF1200E32D201EB0451F2
:1058400012FA0EF2BDE8104058BF7047401C38BF36
:105850005FEA420218BF7047002814BF20F0010021
:1058600041F100014FEA410313F5001F38BF7047B3
:10587000A1F1C04100F06EBB012A43EB0302ACF181
:10588000200CDCF11F0E32BF4FF0000E23FA0CF398
:1058900010EB030041EB0451B4EB115FD0D0A1EB4E
:1058A000045101F5801149085FEA300001EB045111
:1058B0000ED350F1000038BF12FA0EFE08D1BDE839
:1058C0001040C9E7401C38BF5FEA4202CAD1C3E7B3
:1058D000BDE810404FEA410313F5001F38BF704781
:1058E000A1F1C04100F036BB9EEA445F08D011EA46
:1058F0005E0FBDE8104004BF01F00041002070477A
:10590000BDE8104070B500F0D7FA00BF64FBBE3EA2
:105910000000E0FF491058BFC1F140415B1058BF83
:10592000C3F140438B42EFF3008070472DE9C04143
:1059300030B4DFF8A0C23CEA111418BF3CEA1314DB
:1059400000F0EC8081EA03051CEA111444EAD574E6
:1059500018BF1CEA131500F0C780A4EB05044FF034
:10596000004545EAC12145EAC32341EA505143EAD3
:10597000525304F17F74994204F500344FEAC02079
:105980004FEAC22208BF904200F09C804FEA1365A4
:105990000FF24016765D4FEA134506FB05F7C7F197
:1059A000807706FB07F74FEAD737A7FB03687642F5
:1059B000C8F58038A7FB06CE38BFA8F1010807FB61
:1059C00008E64FF0000EA6FB028CE6FB03CEDCF1EE
:1059D000000CCEF1004E38BFAEF1010EA6FB0C5804
:1059E0004FF000074FF00005E6FB0E87A1FB08C64D
:1059F000A0FB07CE16EB0E0645F10005E1FB07659F
:105A000015F1E04E7EBFA4F580345FEA46066D4195
:105A100016F1800745F100054FEA17274FEA0666A1
:105A200047EA0567A6F1DE46B6F1805F4FEA152525
:105A30001FD9384624F0010C05EBC471BCF1FE6F90
:105A400001EB0C1102D8F0BCBDE8008124425CBF20
:105A500001F5801E9EEAC47F02D4F0BCBDE800813F
:105A6000244238D4F0BCA1F1C041BDE8004100F0AF
:105A700071BA4FEAD22242EA43524FEAD323A7FB3C
:105A800002864FEAD02040EA415007FB03661EEA37
:105A90000E0F4FEAD12105FB026658BFA6EB005658
:105AA000B6EB00564FEA520E4EEAC37E18EB0E0ECE
:105AB00056EB530EBDD518EB02085E417F1C55F125
:105AC0000005B6E74FF480154FF000074FF00006D1
:105AD0004FF00008ADE7F0BC4FF0000001F1C0410D
